:1000000000020020E11F00004D20000055200000EC
:100010005D2000005D2000005D2000000000000069
:100020000000000000000000000000005D20000053
:100030005D200000000000005D2000005D20000049
:100040005D2000005D2000005D2000005D200000BC
:100050005D2000005D2000005D2000005D200000AC
:100060005D2000005D2000005D2000005D2000009C
:100070005D2000005D2000005D2000005D2000008C
:100080005D2000005D2000005D2000005D2000007C
:100090005D2000005D2000005D2000005D2000006C
:1000A0005D2000005D2000005D2000005D2000005C
:1000B0005D2000005D2000005D2000005D2000004C
:1000C0005D2000005D2000005D2000005D2000003C
:1000D0005D2000005D2000005D2000005D2000002C
:1000E0005D2000005D2000005D2000005D2000001C
:1000F0005D2000005D2000005D2000005D2000000C
:100100005D2000005D2000005D2000005D200000FB
:100110005D2000005D2000005D2000005D200000EB
:100120005D2000005D2000005D2000005D200000DB
:100130005D2000005D2000005D2000005D200000CB
:1001400000000000000000000000000000000000AF
:100150005D2000005D2000005D2000005D200000AB
:10016000000000000000000000000000000000008F
:10017000000000000000000000000000000000007F
:10018000000000000000000000000000000000006F
:10019000000000000000000000000000000000005F
:1001A000000000000000000000000000000000004F
:1001B0005D2000005D2000005D2000005D2000004B
:1001C0005D2000005D2000005D2000005D2000003B
:1001D0005D2000005D2000005D2000005D2000002B
:1001E0005D2000005D2000005D2000005D2000001B
:1001F0005D2000005D2000005D2000005D2000000B
:100200005D2000005D2000005D2000000000000077
:100210005D2000005D2000005D2000005D200000EA
:100220005D2000005D2000005D2000005D200000DA
:100230005D2000005D2000005D2000005D200000CA
:100240005D2000005D2000005D2000005D200000BA
:100250005D2000005D2000005D2000005D200000AA
:100260005D2000005D2000005D20000080B500AF33
:100270003E4801F087FFFF213D4801F074FF47F23F
:10028000305001F0ADFF00220121394801F068FF34
:100290003022F021364801F063FF02220221344867
:1002A00001F05EFF0A2001F09BFF0022022130488E
:1002B00001F056FF47F2305001F092FF3022F0215A
:1002C0002B4801F04DFF02220221294801F048FF8E
:1002D0000A2001F085FF00220221254801F040FF9D
:1002E00047F2305001F07CFF3022F021204801F02D
:1002F00037FF022202211E4801F032FF0A2001F0DE
:100300006FFF002202211A4801F02AFF47F2305005
:1003100001F066FF2022F021154801F021FF0222A2
:100320000221134801F01CFF0A2001F059FF0022AE
:1003300002210F4801F014FF47F2305001F050FF46
:10034000282000F017F8C02000F014F8062000F074
:1003500011F8802000F00EF8282000F00BF80F2094
:1003600000F008F800F0CEF800BF80BD02000020C9
:100370000050004080B582B000AF0346FB71FB79AE
:1003800023F00F03DBB21A46F0211E4801F0E8FE0D
:10039000002201211B4801F0E3FE0222022119483C
:1003A00001F0DEFE4CF2503001F01AFF0022022173
:1003B000144801F0D5FE4CF2503001F011FFFB79EA
:1003C0001B01DBB21A46F0210E4801F0C9FE0022E3
:1003D00001210C4801F0C4FE02220221094801F06B
:1003E000BFFE0A2001F0FCFE00220221054801F0B8
:1003F000B7FE4CF2503001F0F3FE00BF0837BD46A7
:1004000080BD00BF0050004080B582B000AF034601
:10041000FB71FB7923F00F03DBB21A46F0211D4874
:1004200001F09EFE012201211A4801F099FE0222EC
:100430000221184801F094FE0A2001F0D1FE0022AA
:100440000221144801F08CFE47F2305001F0C8FE42
:10045000FB791B01DBB21A46F0210E4801F080FE49
:10046000012201210B4801F07BFE022202210948F2
:1004700001F076FE0A2001F0B3FE002202210548B9
:1004800001F06EFE47F2305001F0AAFE00BF0837BF
:10049000BD4680BD0050004080B582B000AF03462D
:1004A0000A46FB711346BB7197F90730012B11D136
:1004B00097F906305A1E124B1340002B03DA013B0A
:1004C00063F00F030133DBB2803BDBB21846FFF76A
:1004D00051FF10E097F906305A1E094B1340002BCC
:1004E00003DA013B63F00F030133DBB2403BDBB2C5
:1004F0001846FFF73FFF00BF0837BD4680BD00BF6D
:100500000F00008080B500AF0120FFF733FF0A2005
:1005100001F066FE00BF80BD80B582B000AF78609C
:1005200008E07B685A1C7A6093F90030DBB2184609
:10053000FFF76AFF7B6893F90030002BF1D100BF11
:100540000837BD4680BD00BF80B483B000AF134AFA
:10055000124B1B6843F010031360114B1B687B6048
:10056000104B114A1A60114B3F221A60104B0022A7
:100570001A60104B00221A600F4B00221A600F4BBA
:1005800000221A600E4B3F221A600E4B3F221A6067
:1005900000BF0C37BD465DF8047B704708E10F4093
:1005A00008E60F40204502404B434F4C2445024093
:1005B000284502402C4502400044024020440240AD
:1005C000104502401C45024080B483B000AF104A81
:1005D0000F4B1B6843F0010313600D4B1B687B60DE
:1005E0000C4A0C4B1B6843F0FF0313600A4A0A4B8A
:1005F0001B6863F0FF031360084A084B1B6843F055
:10060000FF03136000BF0C37BD465DF8047B7047E5
:1006100008E10F4000440040204400401C450040D9
:1006200080B592B000AFA54801F0DEFDFFF78CFF6A
:10063000FFF7CAFF00233B640023FB630023BB6377
:1006400000237B6300233B630023FB62FFF70EFE66
:100650000C210120FFF720FF9948FFF75DFF994B20
:100660001B6803F01003BB62964B1B6803F020036A
:100670007B62944B1B6803F008033B62914B1B6841
:1006800003F00403FB618F4B1B6803F00203BB61A3
:100690008C4B1B6803F001037B6100237B6402E049
:1006A0007B6C01337B647B6C874A9342F8DDBB6AC9
:1006B000102B7FD03B6C01333B64844A834B1B6817
:1006C00043F004031360824801F08AFD7F4B00224F
:1006D0001A603B6C012B07D10C210120FFF7DCFED7
:1006E0007C48FFF719FFBAE73B6C022B07D10C21BE
:1006F0000120FFF7D1FE7848FFF70EFFAFE73B6C14
:10070000032B07D10C210120FFF7C6FE7348FFF72A
:1007100003FFA4E73B6C042B07D10C210120FFF75A
:10072000BBFE6F48FFF7F8FE99E73B6C052B07D13E
:100730000C210120FFF7B0FE6A48FFF7EDFE8EE7BF
:100740003B6C062B07D10C210120FFF7A5FE664864
:10075000FFF7E2FE83E73B6C072B07D10C2101205A
:10076000FFF79AFE6148FFF7D7FE78E73B6C082B4E
:1007700007D10C210120FFF78FFE5D48FFF7CCFE6B
:100780006DE73B6C092B07D10C210120FFF784FE9C
:100790005848FFF7C1FE62E73B6C092B7FF75FAF5C
:1007A0000C210120FFF778FE5348FFF7B5FE002328
:1007B0003B6454E77B6A202B00F0A080FB6B013385
:1007C000FB63424A414B1B6843F0080313604048F7
:1007D00001F006FD3D4B00221A60FB6B012B07D197
:1007E0000D210120FFF758FE3A48FFF795FE36E746
:1007F000FB6B022B07D10D210120FFF74DFE364880
:10080000FFF78AFE2BE7FB6B032B07D10D2101209D
:10081000FFF742FE3148FFF77FFE20E7FB6B042B1A
:1008200007D10D210120FFF737FE2D48FFF774FE99
:1008300015E7FB6B052B07D10D210120FFF72CFEDF
:100840002848FFF769FE0AE7FB6B062B07D10D214D
:100850000120FFF721FE2448FFF75EFEFFE6FB6B59
:10086000072B07D10D210120FFF716FE1F48FFF7C8
:1008700053FEF4E6FB6B082B07D10D210120FFF797
:100880000BFE1B48FFF748FEE9E6FB6B092B07D17F
:100890000D210120FFF700FE1648FFF73DFEDEE6C2
:1008A000FB6B092B7FF7DBAE0D210120FFF7F4FD79
:1008B0001148FFF731FE0023FB63D0E6400500C17D
:1008C0005C230000FC4302403F420F00FC43004019
:1008D00000093D0064230000682300006C23000031
:1008E0007023000074230000782300007C230000A4
:1008F0008023000084230000882300003B6A082B2B
:1009000037D03B6B01333B639D4A9D4B1B6843F0E3
:10091000100313609B4801F063FC994B00221A609E
:100920003B6B012B07D10E210120FFF7B5FD964847
:10093000FFF7F2FD93E600237B6402E07B6C01335A
:100940007B647B6C914A9342F8DDFFF7DBFD00236B
:100950003B6400233B630023FB630023BB63002352
:100960007B630C210120FFF797FD8948FFF7D4FD39
:1009700075E6FB69042B7FD0BB6B0133BB63804AF8
:100980007F4B1B6843F0200313607E4801F028FC76
:100990007B4B00221A60BB6B012B07D10F2101207A
:1009A000FFF77AFD7B48FFF7B7FD58E6BB6B022BDC
:1009B00007D10F210120FFF76FFD7748FFF7ACFD4E
:1009C0004DE6BB6B032B07D10F210120FFF764FD20
:1009D0007248FFF7A1FD42E6BB6B042B07D10F2144
:1009E0000120FFF759FD6E48FFF796FD37E6BB6B18
:1009F000052B07D10F210120FFF74EFD6948FFF7B6
:100A00008BFD2CE6BB6B062B07D10F210120FFF7D6
:100A100043FD6548FFF780FD21E6BB6B072B07D13F
:100A20000F210120FFF738FD6048FFF775FD16E63E
:100A3000BB6B082B07D10F210120FFF72DFD5C4870
:100A4000FFF76AFD0BE6BB6B092B07D10F210120D5
:100A5000FFF722FD5748FFF75FFD00E6BB6B092B50
:100A60007FF7FDAD0F210120FFF716FD5248FFF77C
:100A700053FD0023BB63F2E5BB69022B00F09E80AF
:100A80007B6B01337B633E4A3D4B1B6843F0400365
:100A900013603C4801F0A4FB394B00221A607B6BC9
:100AA000012B07D110210120FFF7F6FC3948FFF791
:100AB00033FDD4E57B6B022B07D110210120FFF71A
:100AC000EBFC3548FFF728FDC9E57B6B032B07D10D
:100AD00010210120FFF7E0FC3048FFF71DFDBEE5C7
:100AE0007B6B042B07D110210120FFF7D5FC2C488C
:100AF000FFF712FDB3E57B6B052B07D11021012019
:100B0000FFF7CAFC2748FFF707FDA8E57B6B062B1C
:100B100007D110210120FFF7BFFC2348FFF7FCFCA1
:100B20009DE57B6B072B07D110210120FFF7B4FC5B
:100B30001E48FFF7F1FC92E57B6B082B07D11021D3
:100B40000120FFF7A9FC1A48FFF7E6FC87E57B6B5D
:100B5000092B07D110210120FFF79EFC1548FFF754
:100B6000DBFC7CE57B6B092B7FF779AD1021012045
:100B7000FFF792FC1048FFF7CFFC00237B636EE584
:100B8000FC43004000093D008C230000BFCF6A00F9
:100B90005C23000064230000682300006C23000035
:100BA0007023000074230000782300007C230000E1
:100BB0008023000084230000882300007B69012B30
:100BC0003FF44DADBB4ABB4B1B6843F08003136041
:100BD000B94801F005FBB74B00221A603B6C012BB2
:100BE00040F311813B6CDA0F13445B10FB623A6CEB
:100BF000B24B1340002B03DA013B63F001030133D6
:100C00003B61FB6A042B3DD101210220FFF744FC2C
:100C1000AB48FFF781FC3B69012B21D1A94801F0CA
:100C2000DFFA0C210120FFF737FCA748FFF774FC1F
:100C3000A44801F0D5FA01210220FFF72DFCA348BA
:100C4000FFF76AFC9F4801F0CBFA0C210120FFF767
:100C500023FC9F48FFF760FC9A4801F0C1FAF4E0DA
:100C60003B69002B40F0F180964801F0B9FA0C2165
:100C70000120FFF711FC9648FFF74EFC914801F068
:100C8000AFFAE2E0FB6A032B3DD101210220FFF71E
:100C900003FC9048FFF740FC3B69012B21D18948B8
:100CA00001F09EFA0C210120FFF7F6FB8648FFF7C2
:100CB00033FC844801F094FA01210220FFF7ECFB99
:100CC0008548FFF729FC7F4801F08AFA0C210120B2
:100CD000FFF7E2FB7E48FFF71FFC7A4801F080FA3D
:100CE000B3E03B69002B40F0B080764801F078FA21
:100CF0000C210120FFF7D0FB7548FFF70DFC714870
:100D000001F06EFAA1E0FB6A022B3CD10121022026
:100D1000FFF7C2FB7148FFF7FFFB3B69012B21D1B5
:100D2000684801F05DFA0C210120FFF7B5FB664829
:100D3000FFF7F2FB634801F053FA01210220FFF7AD
:100D4000ABFB6248FFF7E8FB5E4801F049FA0C2173
:100D50000120FFF7A1FB5E48FFF7DEFB594801F0D9
:100D60003FFA72E03B69002B6FD1564801F038FA28
:100D70000C210120FFF790FB5548FFF7CDFB5148B0
:100D800001F02EFA61E0FB6A012B5ED10121022005
:100D9000FFF782FB5248FFF7BFFB3B69012B21D1D4
:100DA000484801F01DFA0C210120FFF775FB464869
:100DB000FFF7B2FB434801F013FA01210220FFF7CD
:100DC0006BFB4248FFF7A8FB3E4801F009FA0C21F3
:100DD0000120FFF761FB3E48FFF79EFB394801F019
:100DE000FFF932E03B69002B2FD1364801F0F8F9CA
:100DF0000C210120FFF750FB3548FFF78DFB3148F0
:100E000001F0EEF921E03B6C012B11D10121022010
:100E1000FFF742FB3348FFF77FFB2A4801F0E0F978
:100E20000C210120FFF738FB2948FFF775FB0CE088
:100E30003B6C002B09D101210220FFF72DFB2A4832
:100E4000FFF76AFB1F4801F0CBF9FA6B274B83FBD6
:100E500002135910D317C91A0B469B000B44D31A1F
:100E6000FB60FB6B042B06DD01210220FFF714FB66
:100E70001F48FFF751FBFB68042B3FD1114801F0DD
:100E8000AFF90D210120FFF707FB1A48FFF744FBDC
:100E90000C4801F0A5F901210220FFF7FDFA1648E0
:100EA000FFF73AFB0D210120FFF7F6FA0848FFF79C
:100EB00033FB97E0FC43004000093D000100008047
:100EC00090230000005A620264230000A023000067
:100ED00088230000B0230000C0230000CC230000C2
:100EE000DC230000EC230000FC230000676666663C
:100EF000082400007023000018240000FB68032B66
:100F00001BD1CC4801F06CF90D210120FFF7C4FA88
:100F1000C948FFF701FBC74801F062F9012102202F
:100F2000FFF7BAFAC548FFF7F7FA0D210120FFF7DE
:100F3000B3FAC348FFF7F0FA54E0FB68022B1BD169
:100F4000BC4801F04DF90D210120FFF7A5FABD487D
:100F5000FFF7E2FAB74801F043F901210220FFF759
:100F60009BFAB948FFF7D8FA0D210120FFF794FA50
:100F7000B348FFF7D1FA35E0FB68012B1BD1AD4830
:100F800001F02EF90D210120FFF786FAAF48FFF797
:100F9000C3FAA84801F024F901210220FFF77CFAE6
:100FA000AB48FFF7B9FA0D210120FFF775FAA44805
:100FB000FFF7B2FA16E0FB6B002B13D19D4801F04E
:100FC0000FF90D210120FFF767FA9D48FFF7A4FAFA
:100FD000984801F005F901210220FFF75DFA9D48CC
:100FE000FFF79AFABA6B9C4B83FB02135910D31785
:100FF000C91A0B469B000B44D31ABB60BB6B042B76
:1010000009DD8C4801F0ECF801210220FFF744FAD9
:101010009248FFF781FABB68042B40F0EE818548C7
:1010200001F0DEF80F210120FFF736FA8C48FFF7B8
:1010300073FA804801F0D4F801210220FFF72CFA5E
:101040008848FFF769FA7B4801F0CAF87B6B092BE7
:1010500027D10F210120FFF71FFA8348FFF75CFA21
:1010600001210220FFF718FA8048FFF755FA71486E
:1010700001F0B6F80F210120FFF70EFA7048FFF7D4
:101080004BFA01210220FFF707FA7948FFF744FAEB
:1010900010210120FFF700FA6948FFF73DFAFFF73A
:1010A000DEBA7B6B082B27D10F210120FFF7F4F963
:1010B0007048FFF731FA01210220FFF7EDF96B4884
:1010C000FFF72AFA5B4801F08BF80F210120FFF7A8
:1010D000E3F95B48FFF720FA01210220FFF7DCF972
:1010E0006548FFF719FA10210120FFF7D5F9544898
:1010F000FFF712FAFFF7B3BA7B6B072B27D10F214B
:101100000120FFF7C9F95D48FFF706FA0121022027
:10111000FFF7C2F95548FFF7FFF9464801F060F8BC
:101120000F210120FFF7B8F94548FFF7F5F9012134
:101130000220FFF7B1F95248FFF7EEF91021012024
:10114000FFF7AAF93E48FFF7E7F9FFF788BA7B6B8C
:10115000062B27D10F210120FFF79EF94948FFF701
:10116000DBF901210220FFF797F94048FFF7D4F996
:10117000304801F035F80F210120FFF78DF9304894
:10118000FFF7CAF901210220FFF786F93E48FFF771
:10119000C3F910210120FFF77FF92948FFF7BCF9B7
:1011A000FFF75DBA7B6B052B19D10F210120FFF7EB
:1011B00073F93648FFF7B0F901210220FFF76CF907
:1011C0002A48FFF7A9F91B4801F00AF80F2101206E
:1011D000FFF762F92E48FFF79FF9FFF740BA7B6BE4
:1011E000042B5DD10F210120FFF756F92948FFF7A5
:1011F00093F901210220FFF74FF92748FFF78CF9F7
:101200000C4800F0EDFF0F210120FFF745F90C48D5
:10121000FFF782F901210220FFF73EF91F48FFF78F
:101220007BF90F210120FFF737F91948FFF774F90F
:10123000FFF715BA005A62026C2300002824000050
:101240008823000068230000382400006423000085
:101250004824000058240000676666666424000085
:101260007023000074240000802400008424000007
:10127000902400009C240000A0240000AC24000066
:10128000B0240000BC240000C0240000CC240000D6
:10129000D0240000D4240000D8240000E42400005E
:1012A0007B6B032B27D10F210120FFF7F5F8D548E1
:1012B000FFF732F901210220FFF7EEF8D248FFF7DD
:1012C0002BF9D24800F08CFF0F210120FFF7E4F842
:1012D000CF48FFF721F901210220FFF7DDF8CD48C3
:1012E000FFF71AF90F210120FFF7D6F8CA48FFF7D8
:1012F00013F9FFF7B4B97B6B022B27D10F21012023
:10130000FFF7CAF8C548FFF707F901210220FFF7E8
:10131000C3F8BD48FFF700F9BC4800F061FF0F219A
:101320000120FFF7B9F8BA48FFF7F6F801210220CB
:10133000FFF7B2F8BA48FFF7EFF80F210120FFF7E7
:10134000ABF8B548FFF7E8F8FFF789B97B6B012BDD
:1013500027D10F210120FFF79FF8B248FFF7DCF8F3
:1013600001210220FFF798F8A748FFF7D5F8A74812
:1013700000F036FF0F210120FFF78EF8A448FFF799
:10138000CBF801210220FFF787F8A748FFF7C4F840
:101390000F210120FFF780F89F48FFF7BDF8FFF706
:1013A0005EB97B6B002B7FF45AA90F210120FFF758
:1013B00073F89E48FFF7B0F801210220FFF76CF8A0
:1013C0009148FFF7A9F8914800F00AFF0F2101208A
:1013D000FFF762F88E48FFF79FF801210220FFF720
:1013E0005BF89348FFF798F80F210120FFF754F8B6
:1013F0008948FFF791F8FFF732B9BB68032B40F03B
:10140000B481824800F0ECFE0F210120FFF744F880
:101410008848FFF781F87D4800F0E2FE01210220B4
:10142000FFF73AF88448FFF777F8784800F0D8FEDD
:101430007B6B092B27D10F210120FFF72DF87F4867
:10144000FFF76AF801210220FFF726F86E48FFF740
:1014500063F86E4800F0C4FE0F210120FFF71CF86E
:101460006B48FFF759F801210220FFF715F874487F
:10147000FFF752F810210120FFF70EF86448FFF73C
:101480004BF8FFF7ECB87B6B082B27D10F2101201D
:10149000FFF702F86B48FFF73FF801210220FEF743
:1014A000FBFF5948FFF738F8584800F099FE0F2124
:1014B0000120FEF7F1FF5648FFF72EF80121022028
:1014C000FEF7EAFF6048FFF727F810210120FEF73A
:1014D000E3FF4F48FFF720F8FFF7C1B87B6B072BFE
:1014E00027D10F210120FEF7D7FF5848FFF714F846
:1014F00001210220FEF7D0FF4348FFF70DF84348D3
:1015000000F06EFE0F210120FEF7C6FF4048FFF7F6
:1015100003F801210220FEF7BFFF4D48FEF7FCFF54
:1015200010210120FEF7B8FF3948FEF7F5FFFFF75D
:1015300096B87B6B062B27D10F210120FEF7ACFF5D
:101540004448FEF7E9FF01210220FEF7A5FF2E48DF
:10155000FEF7E2FF2D4800F043FE0F210120FEF7C9
:101560009BFF2B48FEF7D8FF01210220FEF794FFD6
:101570003948FEF7D1FF10210120FEF78DFF2448E6
:10158000FEF7CAFFFFF76BB87B6B052B19D10F2154
:101590000120FEF781FF3148FEF7BEFF0121022046
:1015A000FEF77AFF1848FEF7B7FF184800F018FE5C
:1015B0000F210120FEF770FF1748FEF7ADFFFFF780
:1015C0004EB87B6B042B4FD1104800F009FE0F2161
:1015D0000120FEF761FF2248FEF79EFF0B4800F056
:1015E000FFFD01210220FEF757FF1E48FEF794FF82
:1015F0000F210120FEF750FF0748FEF78DFFFFF790
:101600002EB800BFF4240000D8240000005A620263
:1016100088230000F8240000D024000008250000E2
:101620000C2500001C2500002025000030250000AE
:10163000342500006C2300004425000054250000E0
:101640009024000058250000A02400005C25000024
:10165000B024000060250000C024000064250000C4
:1016600068250000E42400007B6B032B1CD1D248CA
:1016700000F0B6FD0F210120FEF70EFFCF48FEF768
:101680004BFFCD4800F0ACFD01210220FEF704FF26
:10169000CB48FEF741FF0F210120FEF7FDFEC948B0
:1016A000FEF73AFFFEF7DBBF7B6B022B1CD1C24873
:1016B00000F096FD0F210120FEF7EEFEC248FEF776
:1016C0002BFFBD4800F08CFD01210220FEF7E4FE57
:1016D000BE48FEF721FF0F210120FEF7DDFEB948CD
:1016E000FEF71AFFFEF7BBBF7B6B012B1CD1B24884
:1016F00000F076FD0F210120FEF7CEFEB448FEF784
:101700000BFFAD4800F06CFD01210220FEF7C4FE86
:10171000B048FEF701FF0F210120FEF7BDFEA948EA
:10172000FEF7FAFEFEF79BBF7B6B002B7EF497AFB4
:10173000A14800F055FD0F210120FEF7ADFEA6489F
:10174000FEF7EAFE01210220FEF7A6FE9A4800F00D
:1017500047FDA248FEF7E0FE0F210120FEF79CFEA8
:101760009848FEF7D9FEFEF77ABFBB68022B40F01F
:10177000CB81914800F034FD0F210120FEF78CFE53
:101780009748FEF7C9FE7B6B092B26D10121022069
:10179000FEF782FE9348FEF7BFFE874800F020FD6B
:1017A0000F210120FEF778FE8F48FEF7B5FE824834
:1017B00000F016FD01210220FEF76EFE8B48FEF7B9
:1017C000ABFE7D4800F00CFD10210120FEF764FE09
:1017D0008548FEF7A1FEFEF742BF7B6B082B23D1A5
:1017E00001210220FEF758FE7E48FEF795FE724862
:1017F00000F0F6FC0F210120FEF74EFE7A48FEF7BE
:101800008BFE01210220FEF747FE7948FEF784FE99
:10181000694800F0E5FC10210120FEF73DFE72480A
:10182000FEF77AFEFEF71BBF7B6B072B23D101214E
:101830000220FEF731FE6B48FEF76EFE5E4800F0B8
:10184000CFFC0F210120FEF727FE6748FEF764FE5C
:1018500001210220FEF720FE6648FEF75DFE564895
:1018600000F0BEFC10210120FEF716FE5E48FEF7D8
:1018700053FEFEF7F4BE7B6B062B23D10121022021
:10188000FEF70AFE5748FEF747FE4B4800F0A8FC5B
:101890000F210120FEF700FE5348FEF73DFE012117
:1018A0000220FEF7F9FD5448FEF736FE424800F0EC
:1018B00097FC10210120FEF7EFFD4B48FEF72CFEB0
:1018C000FEF7CDBE7B6B052B19D10F210120FEF752
:1018D000E3FD4A48FEF720FE01210220FEF7DCFD71
:1018E0004048FEF719FE344800F07AFC0F21012031
:1018F000FEF7D2FD3348FEF70FFEFEF7B0BE7B6B5E
:10190000042B2AD10F210120FEF7C6FD3C48FEF72B
:1019100003FE01210220FEF7BFFD3A48FEF7FCFD61
:10192000254800F05DFC0F210120FEF7B5FD2E4893
:10193000FEF7F2FD01210220FEF7AEFD3248FEF770
:10194000EBFD1D4800F04CFC0F210120FEF7A4FD2B
:101950001C48FEF7E1FDFEF782BE7B6B032B59D1DD
:101960000F210120FEF798FD2848FEF7D5FD012143
:101970000220FEF791FD2348FEF7CEFD0E4800F051
:101980002FFC0F210120FEF787FD1748FEF7C4FD4D
:1019900001210220FEF780FD1D48FEF7BDFD06482F
:1019A00000F01EFC0F210120FEF776FD0548FEF732
:1019B000B3FDFEF754BE00BF005A62026C25000062
:1019C000F8240000D0240000702500000C25000041
:1019D0007425000020250000782500003425000033
:1019E0006823000074240000882300009024000075
:1019F000A0240000B0240000C02400007C250000CA
:101A00008024000084240000802500009C24000025
:101A1000902500007B6B022B2AD10F210120FEF7BD
:101A20003BFDC848FEF778FD01210220FEF734FD9A
:101A3000C548FEF771FDC54800F0D2FB0F2101201B
:101A4000FEF72AFDC248FEF767FD01210220FEF7DE
:101A500023FDC048FEF760FDBC4800F0C1FB0F212C
:101A60000120FEF719FDBC48FEF756FDFEF7F7BD55
:101A70007B6B012B2AD10F210120FEF70DFDB7480A
:101A8000FEF74AFD01210220FEF706FDAE48FEF7F3
:101A900043FDAE4800F0A4FB0F210120FEF7FCFC43
:101AA000AB48FEF739FD01210220FEF7F5FCAC48FA
:101AB000FEF732FDA54800F093FB0F210120FEF751
:101AC000EBFCA548FEF728FDFEF7C9BD7B6B002B9C
:101AD0007EF4C5AD0F210120FEF7DEFCA148FEF724
:101AE0001BFD01210220FEF7D7FC9748FEF714FDED
:101AF000964800F075FB0F210120FEF7CDFC9648BB
:101B0000FEF70AFDFEF7ABBDBB68012B40F0448138
:101B10008E4800F065FB0F210120FEF7BDFC9248C6
:101B2000FEF7FAFC894800F05BFB01210220FEF77A
:101B3000B3FC8E48FEF7F0FC844800F051FB0F2107
:101B40000120FEF7A9FC8248FEF7E6FC7B6B092B1F
:101B500015D17E4800F044FB01210220FEF79CFCD9
:101B60008348FEF7D9FC794800F03AFB10210120A8
:101B7000FEF792FC7648FEF7CFFCFEF770BD7B6B5C
:101B8000082B15D1714800F02BFB01210220FEF734
:101B900083FC7848FEF7C0FC6C4800F021FB102164
:101BA0000120FEF779FC6A48FEF7B6FCFEF757BD48
:101BB0007B6B072B15D1654800F012FB0121022039
:101BC000FEF76AFC6C48FEF7A7FC604800F008FBD3
:101BD00010210120FEF760FC5D48FEF79DFCFEF73A
:101BE0003EBD7B6B062B15D1584800F0F9FA012158
:101BF0000220FEF751FC6148FEF78EFC534800F0CE
:101C0000EFFA10210120FEF747FC5148FEF784FC53
:101C1000FEF725BD7B6B052B15D14C4800F0E0FA93
:101C200001210220FEF738FC5548FEF775FC4748B5
:101C300000F0D6FA10210120FEF72EFC4448FEF7F2
:101C40006BFCFEF70CBD7B6B042B15D13F4800F0FD
:101C5000C7FA01210220FEF71FFC4A48FEF75CFC90
:101C60003A4800F0BDFA10210120FEF715FC384873
:101C7000FEF752FCFEF7F3BC7B6B032B15D1334808
:101C800000F0AEFA01210220FEF706FC3E48FEF706
:101C900043FC2E4800F0A4FA10210120FEF7FCFBC3
:101CA0002B48FEF739FCFEF7DABC7B6B022B15D113
:101CB000264800F095FA01210220FEF7EDFB33489B
:101CC000FEF72AFC214800F08BFA10210120FEF7D4
:101CD000E3FB1F48FEF720FCFEF7C1BC7B6B012B2A
:101CE00015D11A4800F07CFA01210220FEF7D4FB3E
:101CF0002748FEF711FC154800F072FA1021012068
:101D0000FEF7CAFB1248FEF707FCFEF7A8BC7B6B88
:101D1000002B7EF4A4AC0D4800F062FA01210220F1
:101D2000FEF7BAFB1B48FEF7F7FB084800F058FA2D
:101D300010210120FEF7B0FB0548FEF7EDFBFEF792
:101D40008EBC00BFAC24000084240000005A620254
:101D500088230000A0250000D0240000BC2400003F
:101D6000B0250000CC24000064230000C025000042
:101D7000CC250000D8250000E4250000F025000057
:101D8000FC25000090240000A0240000B0240000E6
:101D9000C024000058240000BB6B002B03D0BB6B99
:101DA000052B7EF45CAC824800F01AFA0F2101206A
:101DB000FEF772FB7F48FEF7AFFB7B6B092B15D15B
:101DC0007B4800F00DFA01210220FEF765FB7A48FE
:101DD000FEF7A2FB764800F003FA10210120FEF77F
:101DE0005BFB7448FEF798FBFEF739BC7B6B082B56
:101DF00015D16F4800F0F4F901210220FEF74CFBE9
:101E00006E48FEF789FB6A4800F0EAF910210120CC
:101E1000FEF742FB6748FEF77FFBFEF720BC7B6BBB
:101E2000072B15D1624800F0DBF901210220FEF7F3
:101E300033FB6348FEF770FB5D4800F0D1F91021D9
:101E40000120FEF729FB5B48FEF766FBFEF707BCA7
:101E50007B6B062B15D1564800F0C2F901210220F8
:101E6000FEF71AFB5748FEF757FB514800F0B8F948
:101E700010210120FEF710FB4E48FEF74DFBFEF748
:101E8000EEBB7B6B052B15D1494800F0A9F9012168
:101E90000220FEF701FB4C48FEF73EFB444800F0F1
:101EA0009FF910210120FEF7F7FA4248FEF734FBB4
:101EB000FEF7D5BB7B6B042B15D13D4800F090F9A4
:101EC00001210220FEF7E8FA4048FEF725FB3848DA
:101ED00000F086F910210120FEF7DEFA3548FEF702
:101EE0001BFBFEF7BCBB7B6B032B15D1304800F00E
:101EF00077F901210220FEF7CFFA3548FEF70CFBF7
:101F00002B4800F06DF910210120FEF7C5FA294891
:101F1000FEF702FBFEF7A3BB7B6B022B15D1244817
:101F200000F05EF901210220FEF7B6FA2948FEF71B
:101F3000F3FA1F4800F054F910210120FEF7ACFA23
:101F40001C48FEF7E9FAFEF78ABB7B6B012B15D123
:101F5000174800F045F901210220FEF79DFA1E48BE
:101F6000FEF7DAFA124800F03BF910210120FEF7E3
:101F700093FA1048FEF7D0FAFEF771BB7B6B002B8B
:101F80007EF46DAB0A4800F02BF901210220FEF728
:101F900083FA1248FEF7C0FA054800F021F9102133
:101FA0000120FEF779FA0348FEF7B6FAFEF757BBB1
:101FB000005A620288230000CC250000D8250000CA
:101FC000E4250000F0250000FC250000902400001E
:101FD000A0240000A0250000C02400005824000018
:101FE00080B582B000AF134B7B60134B3B6007E0C2
:101FF0003B681A1D3A607A68111D796012681A6090
:102000003B680E4A9342F3D30E480F494FF000024B
:102010008842B8BF40F8042BFADB094A084B1B681A
:1020200043F470031360FEF7FBFA00BF0837BD46A8
:1020300080BD00BF2C260000000000200000002012
:1020400088ED00E0000000200002002080B400AF16
:10205000FEE700BF80B400AFFEE700BF80B400AF72
:10206000FEE700BFD0F8003412F0010F10B500F504
:10207000806414BF0B438B43236012F0020FD0F82F
:10208000202400F5846314BF114322EA0101196082
:1020900010BD30B5D0F8004512F0010F00F5A06575
:1020A00014BF0C438C432C60D0F8045500F5A06499
:1020B00012F0020F04F1040414BF0D438D43256098
:1020C000D0F8084512F0040F00F5A16514BF0C43C9
:1020D0008C432C6012F0080FD0F8182500F5A3648B
:1020E00014BF0A438A432260D0F80C4500F5A06271
:1020F00013F0010F02F10C0214BF0C438C43146067
:10210000D0F8102513F0020F00F5A26414BF0A43A3
:102110008A432260D0F8144500F5A26213F0040F40
:1021200002F1040214BF0C438C431460D0F81C4528
:1021300000F5A26213F0080F02F10C0214BF0C4369
:102140008C43146000F5A56223B9D0F8283543EA22
:10215000010103E0D0F8283523EA0101116030BD08
:1021600040F82120704770B50122082305460C462F
:10217000FFF78FFF284621460122BDE87040FFF798
:1021800071BF000000F07043B3F1704F15D100F43F
:102190007F42114B120A00F0FF00D318800003F0B9
:1021A000704240F0007023F07F43104323F470032B
:1021B00040EA431301221A607047020F074B53F89D
:1021C000223081B200F4F8101A68000C11FA00F005
:1021D00010431860704700BF00E60F40082600005B
:1021E0000138FDD170470000534B1A6812F0E04FE0
:1021F0002DE9F041044606D01A68504B02EA030369
:10220000B3F1805F02D1002CC0F294804C494D4A5A
:102210000B68166843F4006323F4800546F40066F7
:1022200013F0020F0D60166002D014F0020F05D0FB
:1022300015F0010F1AD014F0010F17D164F0030349
:102240001D403F4B002E1D6005DA06F07003302B59
:1022500005D0702B02E005F03003302B02D14FF493
:10226000805001E04FF40020FFF7BAFF04F4FE6352
:1022700025F4FE6545EA0308334D324F26F000464B
:1022800004EA050526F0700645EA060604F008058E
:1022900046EAC5052A4E1020C6F800803D60FFF7CB
:1022A0009FFF28F4405804F40052284904F4405396
:1022B00025F4005548EA030340201543244A0860EA
:1022C00052BF33603D60336023F0F86304EA0202DA
:1022D00023F0030358BF3D60134304F0FC5125F085
:1022E000FC5214F0804F42EA010208D0194922F44E
:1022F000800204EA010143F480030A4301E022F072
:10230000804214F4006F0CD14FF400411248006871
:1023100010F0400F01D10139F8D123F4006322F409
:10232000006207490B60074B10201A60BDE8F041BE
:10233000FFF756BFBDE8F08100E00F400000FF70DE
:1023400060E00F4070E00F403000008058E00F4028
:102350000300C0070000404050E00F403030203004
:1023600030000000310000003200000033000000A7
:102370003400000035000000360000003700000087
:102380003800000039000000300000002E0000007E
:1023900034207969726D696C696B2020000000003F
:1023A00031206F6E6C756B20202020200000000013
:1023B00033207969726D696C696B20200000000020
:1023C00031206F6E6C756B202020200032207969DF
:1023D000726D696C696B2020000000003120796902
:1023E000726D696C696B20202000000031206F6ED7
:1023F0006C756B2020202020200000002020202051
:10240000202020202020000031206265736C696B41
:10241000202020202000000034206269726C696B4B
:10242000202020202000000033206269726C696B3C
:10243000202020202000000032206269726C696B2D
:10244000202020202000000031206269726C696B1E
:1024500020202020200000002020202020202020DC
:10246000202020003120796172696D6C696B202019
:1024700020000000312063657972656B6C696B0028
:102480003234000032206D6574616C696B000000AD
:1024900034206B757275736C756B200032330000DD
:1024A00033206B757275736C756B200032320000CF
:1024B00032206B757275736C756B200032310000C1
:1024C00031206B757275736C756B200032300000B3
:1024D000303000003139000031206D6574616C6965
:1024E0006B00000039206B757275736C756B202062
:1024F000000000003138000038206B757275736C75
:10250000756B2020000000003137000037206B750C
:102510007275736C756B202000000000313600006E
:1025200036206B757275736C756B2020000000008F
:102530003135000035206B757275736C756B20201A
:1025400000000000312063657972656B6C696B2057
:10255000000000003134000031330000313200004F
:1025600031310000313000003039000030380000D7
:1025700030370000303600003035000032350000C2
:1025800034206B757275736C756B20200000000031
:1025900033206B757275736C756B20200000000022
:1025A00032206B757275736C756B20200000000013
:1025B00031206B757275736C756B20200000000004
:1025C00031206D6574656C696B20200039206B7556
:1025D0007275736C756B200038206B757275736C37
:1025E000756B200037206B757275736C756B2000EE
:1025F00036206B757275736C756B200035206B75AA
:102600007275736C756B200000E10F4004E10F40A0
:1026100008E10F40F8B500BFF8BC08BC9E46704703
:0C262000F8B500BFF8BC08BC9E4670472F
:00000001FF
